{
  "_format": "hh-sol-artifact-1",
  "contractName": "GeneticNFTFactory",
  "sourceName": "contracts/GeneNFTFactory.sol",
  "abi": [
    {
      "inputs": [],
      "stateMutability": "nonpayable",
      "type": "constructor"
    },
    {
      "anonymous": false,
      "inputs": [
        {
          "indexed": true,
          "internalType": "address",
          "name": "owner",
          "type": "address"
        },
        {
          "indexed": true,
          "internalType": "address",
          "name": "approved",
          "type": "address"
        },
        {
          "indexed": true,
          "internalType": "uint256",
          "name": "tokenId",
          "type": "uint256"
        }
      ],
      "name": "Approval",
      "type": "event"
    },
    {
      "anonymous": false,
      "inputs": [
        {
          "indexed": true,
          "internalType": "address",
          "name": "owner",
          "type": "address"
        },
        {
          "indexed": true,
          "internalType": "address",
          "name": "operator",
          "type": "address"
        },
        {
          "indexed": false,
          "internalType": "bool",
          "name": "approved",
          "type": "bool"
        }
      ],
      "name": "ApprovalForAll",
      "type": "event"
    },
    {
      "anonymous": false,
      "inputs": [
        {
          "indexed": true,
          "internalType": "uint256",
          "name": "tokenId",
          "type": "uint256"
        },
        {
          "indexed": false,
          "internalType": "uint256",
          "name": "geneticHash",
          "type": "uint256"
        },
        {
          "indexed": false,
          "internalType": "address",
          "name": "owner",
          "type": "address"
        }
      ],
      "name": "GeneticNFTCreated",
      "type": "event"
    },
    {
      "anonymous": false,
      "inputs": [
        {
          "indexed": true,
          "internalType": "address",
          "name": "from",
          "type": "address"
        },
        {
          "indexed": true,
          "internalType": "address",
          "name": "to",
          "type": "address"
        },
        {
          "indexed": true,
          "internalType": "uint256",
          "name": "tokenId",
          "type": "uint256"
        }
      ],
      "name": "Transfer",
      "type": "event"
    },
    {
      "inputs": [
        {
          "internalType": "address",
          "name": "to",
          "type": "address"
        },
        {
          "internalType": "uint256",
          "name": "tokenId",
          "type": "uint256"
        }
      ],
      "name": "approve",
      "outputs": [],
      "stateMutability": "nonpayable",
      "type": "function"
    },
    {
      "inputs": [
        {
          "internalType": "address",
          "name": "owner",
          "type": "address"
        }
      ],
      "name": "balanceOf",
      "outputs": [
        {
          "internalType": "uint256",
          "name": "",
          "type": "uint256"
        }
      ],
      "stateMutability": "view",
      "type": "function"
    },
    {
      "inputs": [
        {
          "internalType": "string",
          "name": "tokenURI",
          "type": "string"
        },
        {
          "internalType": "uint256",
          "name": "geneticHash",
          "type": "uint256"
        }
      ],
      "name": "createNFT",
      "outputs": [
        {
          "internalType": "uint256",
          "name": "",
          "type": "uint256"
        }
      ],
      "stateMutability": "payable",
      "type": "function"
    },
    {
      "inputs": [],
      "name": "fetchMyNFTs",
      "outputs": [
        {
          "components": [
            {
              "internalType": "uint256",
              "name": "tokenId",
              "type": "uint256"
            },
            {
              "internalType": "uint256",
              "name": "geneticHash",
              "type": "uint256"
            },
            {
              "internalType": "address",
              "name": "owner",
              "type": "address"
            }
          ],
          "internalType": "struct GeneticNFTFactory.GeneticNFT[]",
          "name": "",
          "type": "tuple[]"
        }
      ],
      "stateMutability": "view",
      "type": "function"
    },
    {
      "inputs": [
        {
          "internalType": "uint256",
          "name": "tokenId",
          "type": "uint256"
        }
      ],
      "name": "getApproved",
      "outputs": [
        {
          "internalType": "address",
          "name": "",
          "type": "address"
        }
      ],
      "stateMutability": "view",
      "type": "function"
    },
    {
      "inputs": [
        {
          "internalType": "address",
          "name": "owner",
          "type": "address"
        },
        {
          "internalType": "address",
          "name": "operator",
          "type": "address"
        }
      ],
      "name": "isApprovedForAll",
      "outputs": [
        {
          "internalType": "bool",
          "name": "",
          "type": "bool"
        }
      ],
      "stateMutability": "view",
      "type": "function"
    },
    {
      "inputs": [],
      "name": "name",
      "outputs": [
        {
          "internalType": "string",
          "name": "",
          "type": "string"
        }
      ],
      "stateMutability": "view",
      "type": "function"
    },
    {
      "inputs": [
        {
          "internalType": "uint256",
          "name": "tokenId",
          "type": "uint256"
        }
      ],
      "name": "ownerOf",
      "outputs": [
        {
          "internalType": "address",
          "name": "",
          "type": "address"
        }
      ],
      "stateMutability": "view",
      "type": "function"
    },
    {
      "inputs": [
        {
          "internalType": "address",
          "name": "from",
          "type": "address"
        },
        {
          "internalType": "address",
          "name": "to",
          "type": "address"
        },
        {
          "internalType": "uint256",
          "name": "tokenId",
          "type": "uint256"
        }
      ],
      "name": "safeTransferFrom",
      "outputs": [],
      "stateMutability": "nonpayable",
      "type": "function"
    },
    {
      "inputs": [
        {
          "internalType": "address",
          "name": "from",
          "type": "address"
        },
        {
          "internalType": "address",
          "name": "to",
          "type": "address"
        },
        {
          "internalType": "uint256",
          "name": "tokenId",
          "type": "uint256"
        },
        {
          "internalType": "bytes",
          "name": "_data",
          "type": "bytes"
        }
      ],
      "name": "safeTransferFrom",
      "outputs": [],
      "stateMutability": "nonpayable",
      "type": "function"
    },
    {
      "inputs": [
        {
          "internalType": "address",
          "name": "operator",
          "type": "address"
        },
        {
          "internalType": "bool",
          "name": "approved",
          "type": "bool"
        }
      ],
      "name": "setApprovalForAll",
      "outputs": [],
      "stateMutability": "nonpayable",
      "type": "function"
    },
    {
      "inputs": [
        {
          "internalType": "bytes4",
          "name": "interfaceId",
          "type": "bytes4"
        }
      ],
      "name": "supportsInterface",
      "outputs": [
        {
          "internalType": "bool",
          "name": "",
          "type": "bool"
        }
      ],
      "stateMutability": "view",
      "type": "function"
    },
    {
      "inputs": [],
      "name": "symbol",
      "outputs": [
        {
          "internalType": "string",
          "name": "",
          "type": "string"
        }
      ],
      "stateMutability": "view",
      "type": "function"
    },
    {
      "inputs": [
        {
          "internalType": "uint256",
          "name": "tokenId",
          "type": "uint256"
        }
      ],
      "name": "tokenURI",
      "outputs": [
        {
          "internalType": "string",
          "name": "",
          "type": "string"
        }
      ],
      "stateMutability": "view",
      "type": "function"
    },
    {
      "inputs": [
        {
          "internalType": "address",
          "name": "from",
          "type": "address"
        },
        {
          "internalType": "address",
          "name": "to",
          "type": "address"
        },
        {
          "internalType": "uint256",
          "name": "tokenId",
          "type": "uint256"
        }
      ],
      "name": "transferFrom",
      "outputs": [],
      "stateMutability": "nonpayable",
      "type": "function"
    }
  ],
  "bytecode": "0x60806040523480156200001157600080fd5b506040518060400160405280601481526020017f47656e65746963204d616e64616c61204e4654730000000000000000000000008152506040518060400160405280600481526020017f4d414e4400000000000000000000000000000000000000000000000000000000815250816000908051906020019062000096929190620000b8565b508060019080519060200190620000af929190620000b8565b505050620001cd565b828054620000c69062000168565b90600052602060002090601f016020900481019282620000ea576000855562000136565b82601f106200010557805160ff191683800117855562000136565b8280016001018555821562000136579182015b828111156200013557825182559160200191906001019062000118565b5b50905062000145919062000149565b5090565b5b80821115620001645760008160009055506001016200014a565b5090565b600060028204905060018216806200018157607f821691505b602082108114156200019857620001976200019e565b5b50919050565b7f4e487b7100000000000000000000000000000000000000000000000000000000600052602260045260246000fd5b6131a280620001dd6000396000f3fe6080604052600436106100e85760003560e01c806342842e0e1161008a578063a22cb46511610059578063a22cb4651461030d578063b88d4fde14610336578063c87b56dd1461035f578063e985e9c51461039c576100e8565b806342842e0e1461023f5780636352211e1461026857806370a08231146102a557806395d89b41146102e2576100e8565b8063095ea7b3116100c6578063095ea7b314610192578063202e3740146101bb57806323b872dd146101e6578063268291551461020f576100e8565b806301ffc9a7146100ed57806306fdde031461012a578063081812fc14610155575b600080fd5b3480156100f957600080fd5b50610114600480360381019061010f91906120a1565b6103d9565b60405161012191906125f3565b60405180910390f35b34801561013657600080fd5b5061013f6104bb565b60405161014c919061260e565b60405180910390f35b34801561016157600080fd5b5061017c60048036038101906101779190612147565b61054d565b604051610189919061256a565b60405180910390f35b34801561019e57600080fd5b506101b960048036038101906101b49190612065565b6105d2565b005b3480156101c757600080fd5b506101d06106ea565b6040516101dd91906125d1565b60405180910390f35b3480156101f257600080fd5b5061020d60048036038101906102089190611f5f565b6109b3565b005b610229600480360381019061022491906120f3565b610a13565b6040516102369190612830565b60405180910390f35b34801561024b57600080fd5b5061026660048036038101906102619190611f5f565b610b27565b005b34801561027457600080fd5b5061028f600480360381019061028a9190612147565b610b47565b60405161029c919061256a565b60405180910390f35b3480156102b157600080fd5b506102cc60048036038101906102c79190611efa565b610bf9565b6040516102d99190612830565b60405180910390f35b3480156102ee57600080fd5b506102f7610cb1565b604051610304919061260e565b60405180910390f35b34801561031957600080fd5b50610334600480360381019061032f9190612029565b610d43565b005b34801561034257600080fd5b5061035d60048036038101906103589190611fae565b610d59565b005b34801561036b57600080fd5b5061038660048036038101906103819190612147565b610dbb565b604051610393919061260e565b60405180910390f35b3480156103a857600080fd5b506103c360048036038101906103be9190611f23565b610f0d565b6040516103d091906125f3565b60405180910390f35b60007f80ac58cd000000000000000000000000000000000000000000000000000000007bffffffffffffffffffffffffffffffffffffffffffffffffffffffff1916827bffffffffffffffffffffffffffffffffffffffffffffffffffffffff191614806104a457507f5b5e139f000000000000000000000000000000000000000000000000000000007bffffffffffffffffffffffffffffffffffffffffffffffffffffffff1916827bffffffffffffffffffffffffffffffffffffffffffffffffffffffff1916145b806104b457506104b382610fa1565b5b9050919050565b6060600080546104ca90612ae8565b80601f01602080910402602001604051908101604052809291908181526020018280546104f690612ae8565b80156105435780601f1061051857610100808354040283529160200191610543565b820191906000526020600020905b81548152906001019060200180831161052657829003601f168201915b5050505050905090565b60006105588261100b565b610597576040517f08c379a000000000000000000000000000000000000000000000000000000000815260040161058e906127b0565b60405180910390fd5b6004600083815260200190815260200160002060009054906101000a900473ffffffffffffffffffffffffffffffffffffffff169050919050565b60006105dd82610b47565b90508073ffffffffffffffffffffffffffffffffffffffff168373ffffffffffffffffffffffffffffffffffffffff16141561064e576040517f08c379a0000000000000000000000000000000000000000000000000000000008152600401610645906127f0565b60405180910390fd5b8073ffffffffffffffffffffffffffffffffffffffff1661066d611077565b73ffffffffffffffffffffffffffffffffffffffff16148061069c575061069b81610696611077565b610f0d565b5b6106db576040517f08c379a00000000000000000000000000000000000000000000000000000000081526004016106d2906126f0565b60405180910390fd5b6106e5838361107f565b505050565b606060006106f86007611138565b905060008060005b838110156107a1573373ffffffffffffffffffffffffffffffffffffffff16600960006001846107309190612977565b815260200190815260200160002060020160009054906101000a900473ffffffffffffffffffffffffffffffffffffffff1673ffffffffffffffffffffffffffffffffffffffff16141561078e5760018361078b9190612977565b92505b808061079990612b4b565b915050610700565b5060008267ffffffffffffffff8111156107e4577f4e487b7100000000000000000000000000000000000000000000000000000000600052604160045260246000fd5b60405190808252806020026020018201604052801561081d57816020015b61080a611ce7565b8152602001906001900390816108025790505b50905060005b848110156109a8573373ffffffffffffffffffffffffffffffffffffffff16600960006001846108539190612977565b815260200190815260200160002060020160009054906101000a900473ffffffffffffffffffffffffffffffffffffffff1673ffffffffffffffffffffffffffffffffffffffff1614156109955760006001826108b09190612977565b905060006009600083815260200190815260200160002090508060405180606001604052908160008201548152602001600182015481526020016002820160009054906101000a900473ffffffffffffffffffffffffffffffffffffffff1673ffffffffffffffffffffffffffffffffffffffff1673ffffffffffffffffffffffffffffffffffffffff1681525050848681518110610978577f4e487b7100000000000000000000000000000000000000000000000000000000600052603260045260246000fd5b60200260200101819052506001856109909190612977565b945050505b80806109a090612b4b565b915050610823565b508094505050505090565b6109c46109be611077565b82611146565b610a03576040517f08c379a00000000000000000000000000000000000000000000000000000000081526004016109fa90612810565b60405180910390fd5b610a0e838383611224565b505050565b6000610a1f600761148b565b6000610a2b6007611138565b9050610a3733826114a1565b610a41818561167b565b60405180606001604052808281526020018481526020013373ffffffffffffffffffffffffffffffffffffffff1681525060096000838152602001908152602001600020600082015181600001556020820151816001015560408201518160020160006101000a81548173ffffffffffffffffffffffffffffffffffffffff021916908373ffffffffffffffffffffffffffffffffffffffff160217905550905050807fb5dedf53c060c7467155ff7a5b21c11344b38c3e1634d1eee54dbd76c3106a438433604051610b1592919061284b565b60405180910390a28091505092915050565b610b4283838360405180602001604052806000815250610d59565b505050565b6000806002600084815260200190815260200160002060009054906101000a900473ffffffffffffffffffffffffffffffffffffffff169050600073ffffffffffffffffffffffffffffffffffffffff168173ffffffffffffffffffffffffffffffffffffffff161415610bf0576040517f08c379a0000000000000000000000000000000000000000000000000000000008152600401610be790612730565b60405180910390fd5b80915050919050565b60008073ffffffffffffffffffffffffffffffffffffffff168273ffffffffffffffffffffffffffffffffffffffff161415610c6a576040517f08c379a0000000000000000000000000000000000000000000000000000000008152600401610c6190612710565b60405180910390fd5b600360008373ffffffffffffffffffffffffffffffffffffffff1673ffffffffffffffffffffffffffffffffffffffff168152602001908152602001600020549050919050565b606060018054610cc090612ae8565b80601f0160208091040260200160405190810160405280929190818152602001828054610cec90612ae8565b8015610d395780601f10610d0e57610100808354040283529160200191610d39565b820191906000526020600020905b815481529060010190602001808311610d1c57829003601f168201915b5050505050905090565b610d55610d4e611077565b83836116ef565b5050565b610d6a610d64611077565b83611146565b610da9576040517f08c379a0000000000000000000000000000000000000000000000000000000008152600401610da090612810565b60405180910390fd5b610db58484848461185c565b50505050565b6060610dc68261100b565b610e05576040517f08c379a0000000000000000000000000000000000000000000000000000000008152600401610dfc90612790565b60405180910390fd5b6000600660008481526020019081526020016000208054610e2590612ae8565b80601f0160208091040260200160405190810160405280929190818152602001828054610e5190612ae8565b8015610e9e5780601f10610e7357610100808354040283529160200191610e9e565b820191906000526020600020905b815481529060010190602001808311610e8157829003601f168201915b505050505090506000610eaf6118b8565b9050600081511415610ec5578192505050610f08565b600082511115610efa578082604051602001610ee2929190612546565b60405160208183030381529060405292505050610f08565b610f03846118cf565b925050505b919050565b6000600560008473ffffffffffffffffffffffffffffffffffffffff1673ffffffffffffffffffffffffffffffffffffffff16815260200190815260200160002060008373ffffffffffffffffffffffffffffffffffffffff1673ffffffffffffffffffffffffffffffffffffffff16815260200190815260200160002060009054906101000a900460ff16905092915050565b60007f01ffc9a7000000000000000000000000000000000000000000000000000000007bffffffffffffffffffffffffffffffffffffffffffffffffffffffff1916827bffffffffffffffffffffffffffffffffffffffffffffffffffffffff1916149050919050565b60008073ffffffffffffffffffffffffffffffffffffffff166002600084815260200190815260200160002060009054906101000a900473ffffffffffffffffffffffffffffffffffffffff1673ffffffffffffffffffffffffffffffffffffffff1614159050919050565b600033905090565b816004600083815260200190815260200160002060006101000a81548173ffffffffffffffffffffffffffffffffffffffff021916908373ffffffffffffffffffffffffffffffffffffffff160217905550808273ffffffffffffffffffffffffffffffffffffffff166110f283610b47565b73ffffffffffffffffffffffffffffffffffffffff167f8c5be1e5ebec7d5bd14f71427d1e84f3dd0314c0f7b2291e5b200ac8c7c3b92560405160405180910390a45050565b600081600001549050919050565b60006111518261100b565b611190576040517f08c379a0000000000000000000000000000000000000000000000000000000008152600401611187906126d0565b60405180910390fd5b600061119b83610b47565b90508073ffffffffffffffffffffffffffffffffffffffff168473ffffffffffffffffffffffffffffffffffffffff1614806111dd57506111dc8185610f0d565b5b8061121b57508373ffffffffffffffffffffffffffffffffffffffff166112038461054d565b73ffffffffffffffffffffffffffffffffffffffff16145b91505092915050565b8273ffffffffffffffffffffffffffffffffffffffff1661124482610b47565b73ffffffffffffffffffffffffffffffffffffffff161461129a576040517f08c379a000000000000000000000000000000000000000000000000000000000815260040161129190612650565b60405180910390fd5b600073ffffffffffffffffffffffffffffffffffffffff168273ffffffffffffffffffffffffffffffffffffffff16141561130a576040517f08c379a000000000000000000000000000000000000000000000000000000000815260040161130190612690565b60405180910390fd5b611315838383611976565b61132060008261107f565b6001600360008573ffffffffffffffffffffffffffffffffffffffff1673ffffffffffffffffffffffffffffffffffffffff168152602001908152602001600020600082825461137091906129fe565b925050819055506001600360008473ffffffffffffffffffffffffffffffffffffffff1673ffffffffffffffffffffffffffffffffffffffff16815260200190815260200160002060008282546113c79190612977565b92505081905550816002600083815260200190815260200160002060006101000a81548173ffffffffffffffffffffffffffffffffffffffff021916908373ffffffffffffffffffffffffffffffffffffffff160217905550808273ffffffffffffffffffffffffffffffffffffffff168473ffffffffffffffffffffffffffffffffffffffff167fddf252ad1be2c89b69c2b068fc378daa952ba7f163c4a11628f55a4df523b3ef60405160405180910390a461148683838361197b565b505050565b6001816000016000828254019250508190555050565b600073ffffffffffffffffffffffffffffffffffffffff168273ffffffffffffffffffffffffffffffffffffffff161415611511576040517f08c379a000000000000000000000000000000000000000000000000000000000815260040161150890612770565b60405180910390fd5b61151a8161100b565b1561155a576040517f08c379a000000000000000000000000000000000000000000000000000000000815260040161155190612670565b60405180910390fd5b61156660008383611976565b6001600360008473ffffffffffffffffffffffffffffffffffffffff1673ffffffffffffffffffffffffffffffffffffffff16815260200190815260200160002060008282546115b69190612977565b92505081905550816002600083815260200190815260200160002060006101000a81548173ffffffffffffffffffffffffffffffffffffffff021916908373ffffffffffffffffffffffffffffffffffffffff160217905550808273ffffffffffffffffffffffffffffffffffffffff16600073ffffffffffffffffffffffffffffffffffffffff167fddf252ad1be2c89b69c2b068fc378daa952ba7f163c4a11628f55a4df523b3ef60405160405180910390a46116776000838361197b565b5050565b6116848261100b565b6116c3576040517f08c379a00000000000000000000000000000000000000000000000000000000081526004016116ba90612750565b60405180910390fd5b806006600084815260200190815260200160002090805190602001906116ea929190611d1e565b505050565b8173ffffffffffffffffffffffffffffffffffffffff168373ffffffffffffffffffffffffffffffffffffffff16141561175e576040517f08c379a0000000000000000000000000000000000000000000000000000000008152600401611755906126b0565b60405180910390fd5b80600560008573ffffffffffffffffffffffffffffffffffffffff1673ffffffffffffffffffffffffffffffffffffffff16815260200190815260200160002060008473ffffffffffffffffffffffffffffffffffffffff1673ffffffffffffffffffffffffffffffffffffffff16815260200190815260200160002060006101000a81548160ff0219169083151502179055508173ffffffffffffffffffffffffffffffffffffffff168373ffffffffffffffffffffffffffffffffffffffff167f17307eab39ab6107e8899845ad3d59bd9653f200f220920489ca2b5937696c318360405161184f91906125f3565b60405180910390a3505050565b611867848484611224565b61187384848484611980565b6118b2576040517f08c379a00000000000000000000000000000000000000000000000000000000081526004016118a990612630565b60405180910390fd5b50505050565b606060405180602001604052806000815250905090565b60606118da8261100b565b611919576040517f08c379a0000000000000000000000000000000000000000000000000000000008152600401611910906127d0565b60405180910390fd5b60006119236118b8565b90506000815111611943576040518060200160405280600081525061196e565b8061194d84611b17565b60405160200161195e929190612546565b6040516020818303038152906040525b915050919050565b505050565b505050565b60006119a18473ffffffffffffffffffffffffffffffffffffffff16611cc4565b15611b0a578373ffffffffffffffffffffffffffffffffffffffff1663150b7a026119ca611077565b8786866040518563ffffffff1660e01b81526004016119ec9493929190612585565b602060405180830381600087803b158015611a0657600080fd5b505af1925050508015611a3757506040513d601f19601f82011682018060405250810190611a3491906120ca565b60015b611aba573d8060008114611a67576040519150601f19603f3d011682016040523d82523d6000602084013e611a6c565b606091505b50600081511415611ab2576040517f08c379a0000000000000000000000000000000000000000000000000000000008152600401611aa990612630565b60405180910390fd5b805181602001fd5b63150b7a0260e01b7bffffffffffffffffffffffffffffffffffffffffffffffffffffffff1916817bffffffffffffffffffffffffffffffffffffffffffffffffffffffff191614915050611b0f565b600190505b949350505050565b60606000821415611b5f576040518060400160405280600181526020017f30000000000000000000000000000000000000000000000000000000000000008152509050611cbf565b600082905060005b60008214611b91578080611b7a90612b4b565b915050600a82611b8a91906129cd565b9150611b67565b60008167ffffffffffffffff811115611bd3577f4e487b7100000000000000000000000000000000000000000000000000000000600052604160045260246000fd5b6040519080825280601f01601f191660200182016040528015611c055781602001600182028036833780820191505090505b5090505b60008514611cb857600182611c1e91906129fe565b9150600a85611c2d9190612b94565b6030611c399190612977565b60f81b818381518110611c75577f4e487b7100000000000000000000000000000000000000000000000000000000600052603260045260246000fd5b60200101907effffffffffffffffffffffffffffffffffffffffffffffffffffffffffffff1916908160001a905350600a85611cb191906129cd565b9450611c09565b8093505050505b919050565b6000808273ffffffffffffffffffffffffffffffffffffffff163b119050919050565b60405180606001604052806000815260200160008152602001600073ffffffffffffffffffffffffffffffffffffffff1681525090565b828054611d2a90612ae8565b90600052602060002090601f016020900481019282611d4c5760008555611d93565b82601f10611d6557805160ff1916838001178555611d93565b82800160010185558215611d93579182015b82811115611d92578251825591602001919060010190611d77565b5b509050611da09190611da4565b5090565b5b80821115611dbd576000816000905550600101611da5565b5090565b6000611dd4611dcf84612899565b612874565b905082815260208101848484011115611dec57600080fd5b611df7848285612aa6565b509392505050565b6000611e12611e0d846128ca565b612874565b905082815260208101848484011115611e2a57600080fd5b611e35848285612aa6565b509392505050565b600081359050611e4c81613110565b92915050565b600081359050611e6181613127565b92915050565b600081359050611e768161313e565b92915050565b600081519050611e8b8161313e565b92915050565b600082601f830112611ea257600080fd5b8135611eb2848260208601611dc1565b91505092915050565b600082601f830112611ecc57600080fd5b8135611edc848260208601611dff565b91505092915050565b600081359050611ef481613155565b92915050565b600060208284031215611f0c57600080fd5b6000611f1a84828501611e3d565b91505092915050565b60008060408385031215611f3657600080fd5b6000611f4485828601611e3d565b9250506020611f5585828601611e3d565b9150509250929050565b600080600060608486031215611f7457600080fd5b6000611f8286828701611e3d565b9350506020611f9386828701611e3d565b9250506040611fa486828701611ee5565b9150509250925092565b60008060008060808587031215611fc457600080fd5b6000611fd287828801611e3d565b9450506020611fe387828801611e3d565b9350506040611ff487828801611ee5565b925050606085013567ffffffffffffffff81111561201157600080fd5b61201d87828801611e91565b91505092959194509250565b6000806040838503121561203c57600080fd5b600061204a85828601611e3d565b925050602061205b85828601611e52565b9150509250929050565b6000806040838503121561207857600080fd5b600061208685828601611e3d565b925050602061209785828601611ee5565b9150509250929050565b6000602082840312156120b357600080fd5b60006120c184828501611e67565b91505092915050565b6000602082840312156120dc57600080fd5b60006120ea84828501611e7c565b91505092915050565b6000806040838503121561210657600080fd5b600083013567ffffffffffffffff81111561212057600080fd5b61212c85828601611ebb565b925050602061213d85828601611ee5565b9150509250929050565b60006020828403121561215957600080fd5b600061216784828501611ee5565b91505092915050565b600061217c83836124e6565b60608301905092915050565b61219181612a32565b82525050565b6121a081612a32565b82525050565b60006121b18261290b565b6121bb8185612939565b93506121c6836128fb565b8060005b838110156121f75781516121de8882612170565b97506121e98361292c565b9250506001810190506121ca565b5085935050505092915050565b61220d81612a44565b82525050565b600061221e82612916565b612228818561294a565b9350612238818560208601612ab5565b61224181612c81565b840191505092915050565b600061225782612921565b612261818561295b565b9350612271818560208601612ab5565b61227a81612c81565b840191505092915050565b600061229082612921565b61229a818561296c565b93506122aa818560208601612ab5565b80840191505092915050565b60006122c360328361295b565b91506122ce82612c92565b604082019050919050565b60006122e660258361295b565b91506122f182612ce1565b604082019050919050565b6000612309601c8361295b565b915061231482612d30565b602082019050919050565b600061232c60248361295b565b915061233782612d59565b604082019050919050565b600061234f60198361295b565b915061235a82612da8565b602082019050919050565b6000612372602c8361295b565b915061237d82612dd1565b604082019050919050565b600061239560388361295b565b91506123a082612e20565b604082019050919050565b60006123b8602a8361295b565b91506123c382612e6f565b604082019050919050565b60006123db60298361295b565b91506123e682612ebe565b604082019050919050565b60006123fe602e8361295b565b915061240982612f0d565b604082019050919050565b600061242160208361295b565b915061242c82612f5c565b602082019050919050565b600061244460318361295b565b915061244f82612f85565b604082019050919050565b6000612467602c8361295b565b915061247282612fd4565b604082019050919050565b600061248a602f8361295b565b915061249582613023565b604082019050919050565b60006124ad60218361295b565b91506124b882613072565b604082019050919050565b60006124d060318361295b565b91506124db826130c1565b604082019050919050565b6060820160008201516124fc6000850182612528565b50602082015161250f6020850182612528565b5060408201516125226040850182612188565b50505050565b61253181612a9c565b82525050565b61254081612a9c565b82525050565b60006125528285612285565b915061255e8284612285565b91508190509392505050565b600060208201905061257f6000830184612197565b92915050565b600060808201905061259a6000830187612197565b6125a76020830186612197565b6125b46040830185612537565b81810360608301526125c68184612213565b905095945050505050565b600060208201905081810360008301526125eb81846121a6565b905092915050565b60006020820190506126086000830184612204565b92915050565b60006020820190508181036000830152612628818461224c565b905092915050565b60006020820190508181036000830152612649816122b6565b9050919050565b60006020820190508181036000830152612669816122d9565b9050919050565b60006020820190508181036000830152612689816122fc565b9050919050565b600060208201905081810360008301526126a98161231f565b9050919050565b600060208201905081810360008301526126c981612342565b9050919050565b600060208201905081810360008301526126e981612365565b9050919050565b6000602082019050818103600083015261270981612388565b9050919050565b60006020820190508181036000830152612729816123ab565b9050919050565b60006020820190508181036000830152612749816123ce565b9050919050565b60006020820190508181036000830152612769816123f1565b9050919050565b6000602082019050818103600083015261278981612414565b9050919050565b600060208201905081810360008301526127a981612437565b9050919050565b600060208201905081810360008301526127c98161245a565b9050919050565b600060208201905081810360008301526127e98161247d565b9050919050565b60006020820190508181036000830152612809816124a0565b9050919050565b60006020820190508181036000830152612829816124c3565b9050919050565b60006020820190506128456000830184612537565b92915050565b60006040820190506128606000830185612537565b61286d6020830184612197565b9392505050565b600061287e61288f565b905061288a8282612b1a565b919050565b6000604051905090565b600067ffffffffffffffff8211156128b4576128b3612c52565b5b6128bd82612c81565b9050602081019050919050565b600067ffffffffffffffff8211156128e5576128e4612c52565b5b6128ee82612c81565b9050602081019050919050565b6000819050602082019050919050565b600081519050919050565b600081519050919050565b600081519050919050565b6000602082019050919050565b600082825260208201905092915050565b600082825260208201905092915050565b600082825260208201905092915050565b600081905092915050565b600061298282612a9c565b915061298d83612a9c565b9250827fffffffffffffffffffffffffffffffffffffffffffffffffffffffffffffffff038211156129c2576129c1612bc5565b5b828201905092915050565b60006129d882612a9c565b91506129e383612a9c565b9250826129f3576129f2612bf4565b5b828204905092915050565b6000612a0982612a9c565b9150612a1483612a9c565b925082821015612a2757612a26612bc5565b5b828203905092915050565b6000612a3d82612a7c565b9050919050565b60008115159050919050565b60007fffffffff0000000000000000000000000000000000000000000000000000000082169050919050565b600073ffffffffffffffffffffffffffffffffffffffff82169050919050565b6000819050919050565b82818337600083830152505050565b60005b83811015612ad3578082015181840152602081019050612ab8565b83811115612ae2576000848401525b50505050565b60006002820490506001821680612b0057607f821691505b60208210811415612b1457612b13612c23565b5b50919050565b612b2382612c81565b810181811067ffffffffffffffff82111715612b4257612b41612c52565b5b80604052505050565b6000612b5682612a9c565b91507fffffffffffffffffffffffffffffffffffffffffffffffffffffffffffffffff821415612b8957612b88612bc5565b5b600182019050919050565b6000612b9f82612a9c565b9150612baa83612a9c565b925082612bba57612bb9612bf4565b5b828206905092915050565b7f4e487b7100000000000000000000000000000000000000000000000000000000600052601160045260246000fd5b7f4e487b7100000000000000000000000000000000000000000000000000000000600052601260045260246000fd5b7f4e487b7100000000000000000000000000000000000000000000000000000000600052602260045260246000fd5b7f4e487b7100000000000000000000000000000000000000000000000000000000600052604160045260246000fd5b6000601f19601f8301169050919050565b7f4552433732313a207472616e7366657220746f206e6f6e20455243373231526560008201527f63656976657220696d706c656d656e7465720000000000000000000000000000602082015250565b7f4552433732313a207472616e736665722066726f6d20696e636f72726563742060008201527f6f776e6572000000000000000000000000000000000000000000000000000000602082015250565b7f4552433732313a20746f6b656e20616c7265616479206d696e74656400000000600082015250565b7f4552433732313a207472616e7366657220746f20746865207a65726f2061646460008201527f7265737300000000000000000000000000000000000000000000000000000000602082015250565b7f4552433732313a20617070726f766520746f2063616c6c657200000000000000600082015250565b7f4552433732313a206f70657261746f7220717565727920666f72206e6f6e657860008201527f697374656e7420746f6b656e0000000000000000000000000000000000000000602082015250565b7f4552433732313a20617070726f76652063616c6c6572206973206e6f74206f7760008201527f6e6572206e6f7220617070726f76656420666f7220616c6c0000000000000000602082015250565b7f4552433732313a2062616c616e636520717565727920666f7220746865207a6560008201527f726f206164647265737300000000000000000000000000000000000000000000602082015250565b7f4552433732313a206f776e657220717565727920666f72206e6f6e657869737460008201527f656e7420746f6b656e0000000000000000000000000000000000000000000000602082015250565b7f45524337323155524953746f726167653a2055524920736574206f66206e6f6e60008201527f6578697374656e7420746f6b656e000000000000000000000000000000000000602082015250565b7f4552433732313a206d696e7420746f20746865207a65726f2061646472657373600082015250565b7f45524337323155524953746f726167653a2055524920717565727920666f722060008201527f6e6f6e6578697374656e7420746f6b656e000000000000000000000000000000602082015250565b7f4552433732313a20617070726f76656420717565727920666f72206e6f6e657860008201527f697374656e7420746f6b656e0000000000000000000000000000000000000000602082015250565b7f4552433732314d657461646174613a2055524920717565727920666f72206e6f60008201527f6e6578697374656e7420746f6b656e0000000000000000000000000000000000602082015250565b7f4552433732313a20617070726f76616c20746f2063757272656e74206f776e6560008201527f7200000000000000000000000000000000000000000000000000000000000000602082015250565b7f4552433732313a207472616e736665722063616c6c6572206973206e6f74206f60008201527f776e6572206e6f7220617070726f766564000000000000000000000000000000602082015250565b61311981612a32565b811461312457600080fd5b50565b61313081612a44565b811461313b57600080fd5b50565b61314781612a50565b811461315257600080fd5b50565b61315e81612a9c565b811461316957600080fd5b5056fea26469706673582212203db28418f0a919fd4f01410a4cb36a945ace491b0663f67d113889b0fcdf621864736f6c63430008040033",
  "linkReferences": {},
  "deployedLinkReferences": {}
}